:1000000045C0000060C000005EC000005CC0000091
:100010005AC0000058C0000056C0000054C0000084
:1000200052C0000050C000004EC000004CC0000094
:100030004AC00000C4C0000046C0000044C0000028
:1000400042C0000040C000003EC000003CC00000B4
:100050003AC0000038C0000036C0000034C00000C4
:1000600032C0000030C000002EC000002CC00000D4
:100070002AC0000028C0000026C0000024C00000E4
:1000800022C0000020C000001EC0000011241FBEBE
:10009000CFEFD0E4DEBFCDBF11E0A0E0B1E0E8E7F4
:1000A000F2E000E00BBF02C007900D92A231B10751
:1000B000D9F721E0A2E1B1E001C01D92A631B2075B
:1000C000E1F7C7D0D7C09CCF181619065CF0089589
:1000D000000021503109E1F74F5F5F4F841795070A
:1000E00019F4089540E050E027E033E0F1CF58984C
:1000F00085B9599A0000599882E090E0E5CF0895BB
:1001000081E0F5CF0895813118F48158F0CF08953A
:100110008155EDCF089584E690E0D6DF88E3E7DFF0
:1001200086E0E5DF8FE0E3DF81E0E1DF8AE090E079
:10013000CBCF0895589A85B9599A0000599881E013
:1001400090E0C2CF08950F931F93CF93DF93182FA2
:10015000EB01D6DF8881882351F001E0010F812F68
:10016000D2DF8991E7DF102F88818111F6CFDF91EF
:10017000CF911F910F9108958BE0809381008DE7BF
:1001800090E0909389008093880082E080936F00D4
:1001900010928500109284008091000190910101DD
:1001A000A0910201B0910301809312019093130179
:1001B000A0931401B093150180E88FBF08951F929A
:1001C0000F920FB60F9211248F939F93AF93BF930B
:1001D0008091120190911301A0911401B091150129
:1001E0000197A109B1098093120190931301A09383
:1001F0001401B0931501892B8A2B8B2B81F48091EC
:10020000000190910101A0910201B091030180933E
:10021000120190931301A0931401B0931501BF91A3
:10022000AF919F918F910F900FBE0F901F901895D7
:100230006093000170930101809302019093030188
:100240006093120170931301809314019093150130
:1002500008958FEF84B915B88AB91BB85CDF64E0E4
:1002600071E081E070DF6AE070E080E090E0E0DF64
:0802700083DFFFCFF894FFCFFC
:100278000100000048656C6C6F20576F726C642138
:02028800000074
:00000001FF
