S01900006373313232612D71756164636F707465722E73726563DA
S113000045C0000060C000005EC000005CC000008D
S11300105AC0000058C0000056C0000054C0000080
S113002052C0000050C000004EC000004CC0000090
S11300304AC00000F8C0000046C0000044C00000F0
S113004042C0000040C000003EC000003CC00000B0
S11300503AC0000038C0000036C0000034C00000C0
S113006032C0000030C000002EC000002CC00000D0
S11300702AC0000028C0000026C0000024C00000E0
S113008022C0000020C000001EC0000011241FBEBA
S1130090CFEFD0E4DEBFCDBF11E0A0E0B1E0EAE9EC
S11300A0F8E000E00BBF02C007900D92AE33B10739
S11300B0D9F721E0AEE3B1E001C01D92A235B20749
S11300C0E1F791D3E8C39CCF181619065CF00895A4
S11300D0000021503109E1F74F5F5F4F8417950706
S11300E019F4089540E050E027E033E0F1CF589848
S11300F085B9599A0000599882E090E0E5CF0895B7
S113010081E0F5CF0895813118F48158F0CF089536
S11301108155EDCF089584E690E0D6DF88E3E7DFEC
S113012086E0E5DF8FE0E3DF81E0E1DF8AE090E075
S1130130CBCF0895589A85B9599A0000599881E00F
S113014090E0C2CF08950F931F93CF93DF93182F9E
S1130150EB01D6DF8881882351F001E0010F812F64
S1130160D2DF8991E7DF102F88818111F6CFDF91EB
S1130170CF911F910F910895813081F0E1ECF0E06F
S1130180808188618083E2ECF0E0808186608083F6
S113019083E38093C4001092C5000895E9ECF0E075
S11301A0808188618083EAECF0E0808186608083CE
S11301B083E38093CC001092CD000895613041F028
S11301C0E0ECF0E0908195FFFDCF8093C6000895A8
S11301D0E8ECF0E0908195FFFDCF8093CE00089588
S11301E08BE0809381008DE790E090938900809369
S11301F0880082E080936F00109285001092840042
S11302008091000190910101A0910201B09103013C
S11302108093420190934301A0934401B09345011C
S113022080E88FBF08951F920F920FB60F9211248A
S11302308F939F93AF93BF93809142019091430119
S1130240A0914401B09145010197A109B10980939E
S1130250420190934301A0934401B0934501892B3B
S11302608A2B8B2B99F481E08093460180910001C5
S113027090910101A0910201B09103018093420188
S113028090934301A0934401B0934501BF91AF9172
S11302909F918F910F900FBE0F901F9018956093B0
S11302A00001709301018093020190930301609314
S11302B04201709343018093440190934501089552
S11302C0EAE7F0E08081806E8083089580914A019E
S11302D0882319F0813051F010C08091480188239F
S11302E009F466C081E080934A010AC08091480104
S11302F0811106C010924A010895813009F058C056
S113030080917800909179009093400180933F010F
S113031080914101833019F410927C0003C08F5FF7
S113032080937C0080913F01909140019C01275271
S113033032402531314040F4E0914101F0E0E45B8A
S1130340FE4F81E080832AC08D3323E0920740F082
S1130350E0914101F0E0E45BFE4F82E080831EC047
S11303608A3F910540F4E0914101F0E0E45BFE4FE7
S11303708EEF808313C08B5F91098B3D910540F410
S1130380E0914101F0E0E45BFE4F8FEF808306C013
S1130390E0914101F0E0E45BFE4F10828091410165
S11303A0833019F41092410108958F5F80934101C5
S11303B00895EF92FF921F93CF93DF93CDB7DEB7EB
S11303C02F970FB6F894DEBF0FBECDBF80915101B9
S11303D08130A1F018F08230E9F02AC08091480100
S11303E0882309F4BCC081E08093510180914701C6
S11303F0882369F183E080935101ACC082E080934B
S1130400510180914701882309F43DC083E0809322
S11304105101A0C0809148018111A6C010925101E0
S113042080914701882369F083E08093510192C051
S1130430813069F030F0823031F1833009F09AC0B4
S113044089C05EDE63E171E081E07DDE93C058DE49
S113045062E271E081E077DE8FE0E4E0F1E0DE016A
S1130460119601900D928A95E1F7CE0101967C01D7
S113047011E1812F48DEF70181917F015BDE1F5F6F
S11304801032B9F777C087E03EDE80914F018823B0
S11304901CF48DE24FDE02C080E24CDE88E033DEE5
S11304A080914F01082E000C990B99231CF491950F
S11304B081959109805D3EDE8EE025DE80914E01BE
S11304C088231CF48DE236DE02C080E233DE8FE046
S11304D01ADE80914E01082E000C990B99231CF40E
S11304E0919581959109805D25DE86E10CDE8091F0
S11304F04D0188231CF48DE21DDE02C080E21ADE69
S113050087E101DE80914D01082E000C990B99239F
S11305101CF4919581959109805D0CDE8EE1F3DDEB
S113052080914C0188231CF48DE204DE02C080E239
S113053001DE8FE1E8DD80914C01082E000C990B5F
S113054099231CF4919581959109805DF3DD80E2F6
S1130550DADD10C062E371E081E0F5DD0BC080916B
S11305604701811147CF6DCF80914701882309F45A
S11305708ACF5ACF2F960FB6F894DEBF0FBECDBFE9
S1130580DF91CF911F91FF90EF90089580914901E1
S1130590882319F0813089F01FC080914801882395
S11305A009F4E5C081E080934901809147018823E3
S11305B0C9F082E080934901CDC080914801811146
S11305C0DBC01092490180914701882309F4D9C006
S11305D082E080934901BEC0813021F0823009F06D
S11305E0D0C0B8C080913E01882309F457C08091DF
S11305F0C80085FF27C080914C01882399F02CF412
S11306008E3F41F08F3F51F018C0813079F0823035
S113061089F013C061E082ECD1DD0FC061E081ECB0
S1130620CDDD0BC061E080ECC9DD07C061E084EC86
S1130630C5DD03C061E08CECC1DDE8ECF0E0808155
S113064086FFFDCF8091C80085FF7EC080914D015B
S1130650882399F02CF48E3F41F08F3F51F018C05D
S1130660813079F0823089F013C061E08CE4A6DD3A
S11306700FC061E084E4A2DD0BC061E080E49EDD94
S113068007C061E081E49ADD03C061E083E496DDA4
S1130690E8ECF0E0808186FFFDCF56C08091C80071
S11306A085FF27C080914E01882399F02CF48E3F5A
S11306B041F08F3F51F018C0813079F0823089F0D9
S11306C013C061E08CE37ADD0FC061E084E376DD82
S11306D00BC061E080E372DD07C061E081E36EDDA1
S11306E003C061E083E36ADDE8ECF0E0808186FF2B
S11306F0FDCF8091C80085FF27C080914F018823DA
S113070099F02CF48E3F41F08F3F51F018C08130A6
S113071079F0823089F013C061E08CE14FDD0FC0C5
S113072061E084E14BDD0BC061E080E147DD07C09F
S113073061E081E143DD03C061E083E13FDDE8EC9A
S1130740F0E0808186FFFDCF80913E01809580930B
S11307503E0108958091C80085FF03C061E08FEFDA
S11307602DDDE8ECF0E0808186FFFDCF08958091D7
S11307704701882331F01DCF80914701811128CF93
S113078031CF089580914B01882319F0813039F0DD
S113079004C081E080934B0102C0813041F4309B5E
S11307A004C081E08093480108951092480108959F
S11307B090915001992319F0913081F004C081E0A7
S11307C0809350010BC086B1913061F480958270A2
S11307D0882341F08FEF80934701089586B1809577
S11307E08270F6CF08958FEF84B915B817B888B919
S11307F08AB91BB810924A01109251011092490112
S113080010924B01109250016AE070E080E090E099
S113081046DDE6DC80DC54DD81E0AEDC10927C0059
S113082063E171E081E08FDCC1E017E8D5E10F2ED0
S1130830F9E0FF2EF02D0FE1C19F912D11248C2F93
S1130840891B8695890F82958F709C2F8D9F901997
S11308501124911103C0ADDDCF5F16C0CF9D912D42
S113086011248C2F891B8695890F82958F709C2F5C
S1130870809F90191124911103C088DEC1E004C047
S113088025DD80DF95DFCF5F809146018823E1F38A
S10D089010924601D1CFF894FFCF77
S113089A01000000507463683A203020526F6C6C77
S11308AA3A2030434F4E4E454354494E472E2E2E3E
S11308BA2E00546872746C3A2030205961773A20B9
S11108CA30004552524F525F48414C542100B9
S9030000FC
