:1000000045C0000060C000005EC000005CC0000091
:100010005AC0000058C0000056C0000054C0000084
:1000200052C0000050C000004EC000004CC0000094
:100030004AC00000C4C0000046C0000044C0000028
:1000400042C0000040C000003EC000003CC00000B4
:100050003AC0000038C0000036C0000034C00000C4
:1000600032C0000030C000002EC000002CC00000D4
:100070002AC0000028C0000026C0000024C00000E4
:1000800022C0000020C000001EC0000011241FBEBE
:10009000CFEFD0E4DEBFCDBF11E0A0E0B1E0EAE2F7
:1000A000F4E000E00BBF02C007900D92AC30B10746
:1000B000D9F721E0ACE0B1E001C01D92AA31B2074E
:1000C000E1F780D1B0C19CCF181619065CF00895F5
:1000D000000021503109E1F74F5F5F4F841795070A
:1000E00019F4089540E050E027E033E0F1CF58984C
:1000F00085B9599A0000599882E090E0E5CF0895BB
:1001000081E0F5CF0895813118F48158F0CF08953A
:100110008155EDCF089584E690E0D6DF88E3E7DFF0
:1001200086E0E5DF8FE0E3DF81E0E1DF8AE090E079
:10013000CBCF0895589A85B9599A0000599881E013
:1001400090E0C2CF08950F931F93CF93DF93182FA2
:10015000EB01D6DF8881882351F001E0010F812F68
:10016000D2DF8991E7DF102F88818111F6CFDF91EF
:10017000CF911F910F9108958BE0809381008DE7BF
:1001800090E0909389008093880082E080936F00D4
:1001900010928500109284008091000190910101DD
:1001A000A0910201B091030180930F01909310017F
:1001B000A0931101B093120180E88FBF08951F92A0
:1001C0000F920FB60F9211248F939F93AF93BF930B
:1001D00080910F0190911001A0911101B091120135
:1001E0000197A109B10980930F0190931001A09389
:1001F0001101B0931201892B8A2B8B2B99F481E08A
:10020000809313018091000190910101A09102015E
:10021000B091030180930F0190931001A0931101FD
:10022000B0931201BF91AF919F918F910F900FBE2C
:100230000F901F90189560930001709301018093B7
:1002400002019093030160930F017093100180935A
:100250001101909312010895EAE7F0E08081806E29
:100260008083089580911401882319F0813041F032
:1002700004C081E08093140103C0813009F058C0AC
:10028000809178009091790090930D0180930C01FA
:1002900080910E01833019F410927C0003C08F5FAF
:1002A00080937C0080910C0190910D019C0127525C
:1002B00032402531314040F4E0910E01F0E0EB5E38
:1002C000FE4F81E080832AC08D3323E0920740F007
:1002D000E0910E01F0E0EB5EFE4F82E080831EC0F5
:1002E0008A3F910540F4E0910E01F0E0EB5EFE4F95
:1002F0008EEF808313C08B5F91098B3D910540F495
:10030000E0910E01F0E0EB5EFE4F8FEF808306C0C0
:10031000E0910E01F0E0EB5EFE4F108280910E0145
:10032000833019F410920E0108958F5F80930E01AF
:10033000089580911901882319F0813041F004C09B
:1003400081E08093190103C0813009F03AC081E057
:10035000DADE80911501082E000C990B99231CF40C
:10036000919581959109805DE5DE83E0CCDE8091F9
:100370001601082E000C990B99231CF49195819578
:100380009109805DD7DE85E0BEDE80911701082EE1
:10039000000C990B99231CF4919581959109805D2E
:1003A000C9DE87E0B0DE80911801082E000C990BA1
:1003B00099231CF4919581959109805DBBDE8FE1B5
:1003C000A2CE08958FEF84B915B88AB91BB81092E0
:1003D0001401109219016AE070E080E090E02BDFD8
:1003E000CBDE99DE39DF10927C0064E071E081E0C1
:1003F000AADEC1E019E8DEE135DFC19F812D1124BD
:1004000082958F709C2F8D9F90191124911103C09C
:1004100090DFC1E001C0CF5F809113018823E1F339
:0A04200010921301E9CFF894FFCF0A
:0C042A00010000003020302030203000A5
:00000001FF
