S01900006373313232612D71756164636F707465722E73726563DA
S113000045C0000060C000005EC000005CC000008D
S11300105AC0000058C0000056C0000054C0000080
S113002052C0000050C000004EC000004CC0000090
S11300304AC00000F8C0000046C0000044C00000F0
S113004042C0000040C000003EC000003CC00000B0
S11300503AC0000038C0000036C0000034C00000C0
S113006032C0000030C000002EC000002CC00000D0
S11300702AC0000028C0000026C0000024C00000E0
S113008022C0000020C000001EC0000011241FBEBA
S1130090CFEFD0E4DEBFCDBF11E0A0E0B1E0E0EDF2
S11300A0F7E000E00BBF02C007900D92A233B10746
S11300B0D9F721E0A2E3B1E001C01D92A534B20753
S11300C0E1F733D383C39CCF181619065CF0089567
S11300D0000021503109E1F74F5F5F4F8417950706
S11300E019F4089540E050E027E033E0F1CF589848
S11300F085B9599A0000599882E090E0E5CF0895B7
S113010081E0F5CF0895813118F48158F0CF089536
S11301108155EDCF089584E690E0D6DF88E3E7DFEC
S113012086E0E5DF8FE0E3DF81E0E1DF8AE090E075
S1130130CBCF0895589A85B9599A0000599881E00F
S113014090E0C2CF08950F931F93CF93DF93182F9E
S1130150EB01D6DF8881882351F001E0010F812F64
S1130160D2DF8991E7DF102F88818111F6CFDF91EB
S1130170CF911F910F910895813081F0E1ECF0E06F
S1130180808188618083E2ECF0E0808186608083F6
S113019083E38093C4001092C5000895E9ECF0E075
S11301A0808188618083EAECF0E0808186608083CE
S11301B083E38093CC001092CD000895613041F028
S11301C0E0ECF0E0908195FFFDCF8093C6000895A8
S11301D0E8ECF0E0908195FFFDCF8093CE00089588
S11301E08BE0809381008DE790E090938900809369
S11301F0880082E080936F00109285001092840042
S11302008091000190910101A0910201B09103013C
S11302108093360190933701A0933801B09339014C
S113022080E88FBF08951F920F920FB60F9211248A
S11302308F939F93AF93BF93809136019091370131
S1130240A0913801B09139010197A109B1098093B6
S1130250360190933701A0933801B0933901892B6B
S11302608A2B8B2B99F481E080933A0180910001D1
S113027090910101A0910201B09103018093360194
S113028090933701A0933801B0933901BF91AF9196
S11302909F918F910F900FBE0F901F9018956093B0
S11302A00001709301018093020190930301609314
S11302B03601709337018093380190933901089582
S11302C0EAE7F0E08081806E8083089580913E01AA
S11302D0882319F0813051F010C080913C018823AB
S11302E009F466C081E080933E010AC080913C011C
S11302F0811106C010923E010895813009F058C062
S11303008091780090917900909334018093330127
S113031080913501833019F410927C0003C08F5F03
S113032080937C0080913301909134019C01275289
S113033032402531314040F4E0913501F0E0E05C99
S1130340FE4F81E080832AC08D3323E0920740F082
S1130350E0913501F0E0E05CFE4F82E080831EC056
S11303608A3F910540F4E0913501F0E0E05CFE4FF6
S11303708EEF808313C08B5F91098B3D910540F410
S1130380E0913501F0E0E05CFE4F8FEF808306C022
S1130390E0913501F0E0E05CFE4F10828091350180
S11303A0833019F41092350108958F5F80933501DD
S11303B00895EF92FF921F93CF93DF93CDB7DEB7EB
S11303C02F970FB6F894DEBF0FBECDBF80914401C6
S11303D0813061F018F0823069F013C080913C01E3
S11303E08823B1F081E08093440118C082E08093B7
S11303F0440130C080913C0181112CC01092440111
S113040007C0813059F020F0823009F089C022C041
S113041077DE63E171E081E096DE82C071DE62E244
S113042071E081E090DE8FE0E4E0F1E0DE0111961E
S113043001900D928A95E1F7CE0101967C0111E1BC
S1130440812F61DEF70181917F0174DE1F5F10321D
S1130450B9F766C087E057DE8091430188231CF416
S11304608DE268DE02C080E265DE88E04CDE8091C9
S11304704301082E000C990B99231CF49195819546
S11304809109805D57DE8EE03EDE80914201882333
S11304901CF48DE24FDE02C080E24CDE8FE033DEDE
S11304A080914201082E000C990B99231CF491951C
S11304B081959109805D3EDE86E125DE80914101D2
S11304C088231CF48DE236DE02C080E233DE87E14D
S11304D01ADE80914101082E000C990B99231CF41B
S11304E0919581959109805D25DE8EE10CDE8091E8
S11304F0400188231CF48DE21DDE02C080E21ADE76
S11305008FE101DE80914001082E000C990B9923A4
S11305101CF4919581959109805D0CDE80E2F3DDF8
S11305202F960FB6F894DEBF0FBECDBFDF91CF91EB
S11305301F91FF90EF90089580913D01882319F059
S1130540813051F010C080913C01882309F4D6C059
S113055081E080933D010AC080913C01811106C075
S113056010923D010895813009F0C8C080913B018B
S11305708111B8C080913201882309F457C0809159
S1130580C80085FF27C080914001882399F02CF48E
S11305908E3F41F08F3F51F018C0813079F08230A6
S11305A089F013C061E082EC09DE0FC061E081ECE8
S11305B005DE0BC061E080EC01DE07C061E084EC85
S11305C0FDDD03C061E08CECF9DDE8ECF0E0808156
S11305D086FFFDCF8091C80085FF7EC080914101D8
S11305E0882399F02CF48E3F41F08F3F51F018C0CE
S11305F0813079F0823089F013C061E08CE4DEDD73
S11306000FC061E084E4DADD0BC061E080E4D6DD94
S113061007C061E081E4D2DD03C061E083E4CEDDA4
S1130620E8ECF0E0808186FFFDCF56C08091C800E1
S113063085FF27C080914201882399F02CF48E3FD6
S113064041F08F3F51F018C0813079F0823089F049
S113065013C061E08CE3B2DD0FC061E084E3AEDD82
S11306600BC061E080E3AADD07C061E081E3A6DDA1
S113067003C061E083E3A2DDE8ECF0E0808186FF63
S1130680FDCF8091C80085FF27C080914301882356
S113069099F02CF48E3F41F08F3F51F018C0813017
S11306A079F0823089F013C061E08CE187DD0FC0FE
S11306B061E084E183DD0BC061E080E17FDD07C0A0
S11306C061E081E17BDD03C061E083E177DDE8EC9B
S11306D0F0E0808186FFFDCF809132018095809388
S11306E0320108958091C80085FF03C061E08FEF57
S11306F065DDE8ECF0E0808186FFFDCF0895809110
S11307003F01882319F0813039F004C081E08093DF
S11307103F0102C0813041F4309B04C081E08093EA
S11307203C01089510923C0108958FEF84B915B8E7
S113073017B888B98AB91BB810923E0110924401C7
S113074010923D0110923F016AE070E080E090E079
S1130750A6DD46DDE0DCB4DD81E00EDD10927C0038
S113076063E171E081E0EFDCC1E019E8DEE10F2E26
S1130770F9E0FF2EF02D0FE1C19F812D1124829508
S11307808F709C2F8D9F90191124911103C011DE3D
S1130790CF5F14C0CF9D912D11248C2F891B86957A
S11307A0890F82958F709C2F809F9019112491112D
S11307B003C0C2DEC1E002C089DDCF5FA0DF80914B
S11307C03A018823E1F310923A01D6CFF894FFCF8F
S11307D001000000507463683A203020526F6C6C42
S11307E03A2030434F4E4E454354494E472E2E2E09
S11307F02E00546872746C3A2030205961773A2084
S10508003000C2
S9030000FC
