S01900006373313232612D71756164636F707465722E73726563DA
S113000045C0000060C000005EC000005CC000008D
S11300105AC0000058C0000056C0000054C0000080
S113002052C0000050C000004EC000004CC0000090
S11300304AC0000027C1000046C0000044C00000C0
S113004042C0000040C000003EC000003CC00000B0
S11300503AC0000038C0000036C0000034C00000C0
S113006032C0000030C000002EC000002CC00000D0
S11300702AC0000028C0000026C0000024C00000E0
S113008022C0000020C000001EC0000011241FBEBA
S1130090CFEFD0E4DEBFCDBF11E0A0E0B1E0ECE5EE
S11300A0F6E000E00BBF02C007900D92AC30B10740
S11300B0D9F721E0ACE0B1E001C01D92A232B20751
S11300C0E1F78DD2C9C29CCF181619065CF00895C9
S11300D0000021503109E1F74F5F5F4F8417950706
S11300E019F4089540E050E027E033E0F1CF589848
S11300F085B9599A0000599882E090E0E5CF0895B7
S113010081E0F5CF0895813118F48158F0CF089536
S11301108155EDCF089584E690E0D6DF88E3E7DFEC
S113012086E0E5DF8FE0E3DF81E0E1DF8AE090E075
S1130130CBCF0895589A85B9599A0000599881E00F
S113014090E0C2CF08950F931F93CF93DF93182F9E
S1130150EB01D6DF8881882351F001E0010F812F64
S1130160D2DF8991E7DF102F88818111F6CFDF91EB
S1130170CF911F910F910895813081F0E1ECF0E06F
S1130180808188618083E2ECF0E0808186608083F6
S113019083E38093C4001092C5000895E9ECF0E075
S11301A0808188618083EAECF0E0808186608083CE
S11301B083E38093CC001092CD000895813029F41C
S11301C08091C800882374F008958091C00088232A
S11301D08CF4A6ECB0E0E0ECF0E08C918081882314
S11301E0E4F30895AEECB0E0E8ECF0E08C918081AB
S11301F08823E4F30895613041F0E0ECF0E090816D
S113020095FFFDCF8093C6000895E8ECF0E090815F
S113021095FFFDCF8093CE000895813041F0E0EC4E
S1130220F0E080818823ECF78091C6000895E8EC23
S1130230F0E080818823ECF78091CE0008958BE074
S1130240809381008DE790E09093890080938800EB
S113025082E080936F001092850010928400809158
S1130260000190910101A0910201B09103018093DA
S1130270110190931201A0931301B093140180E82B
S11302808FBF08951F920F920FB60F9211248F9370
S11302909F93AF93BF938091110190911201A0910C
S11302A01301B09114010197A109B10980931101BF
S11302B090931201A0931301B0931401892B8A2BFC
S11302C08B2B99F481E0809315018091000190912A
S11302D00101A0910201B091030180931101909357
S11302E01201A0931301B0931401BF91AF919F9198
S11302F08F910F900FBE0F901F901895609300017F
S113030070930101809302019093030160931101A2
S11303107093120180931301909314010895EAE7F6
S1130320F0E08081806E8083089580911701882396
S113033019F0813041F004C081E08093170103C0BB
S1130340813009F058C080917800909179009093A1
S11303500F0180930E0180911001833019F41092E3
S11303607C0003C08F5F80937C0080910E0190918C
S11303700F019C01275232402531314040F4E09175
S11303801001F0E0E75EFE4F81E080832AC08D33E8
S113039023E0920740F0E0911001F0E0E75EFE4FA9
S11303A082E080831EC08A3F910540F4E0911001F1
S11303B0F0E0E75EFE4F8EEF808313C08B5F910900
S11303C08B3D910540F4E0911001F0E0E75EFE4FB3
S11303D08FEF808306C0E0911001F0E0E75EFE4FEE
S11303E0108280911001833019F410921001089545
S11303F08F5F80931001089580911D01882319F067
S1130400813041F004C081E080931D0103C081303C
S113041009F03AC081E077DE80911901082E000CC2
S1130420990B99231CF4919581959109805D82DE45
S113043083E069DE80911A01082E000C990B992340
S11304401CF4919581959109805D74DE85E05BDEF5
S113045080911B01082E000C990B99231CF4919593
S113046081959109805D66DE87E04DDE80911C01F7
S1130470082E000C990B99231CF4919581959109F0
S1130480805D58DE8FE13FCE0895CF93DF93809156
S11304901601882319F0813041F004C081E0809373
S11304A0160103C0813009F06DC08091C80085FF3A
S11304B04AC080911901082E000C990B99231CF451
S11304C0919581959109837090911C01692F990FE1
S11304D0770B77231CF47195619571090024769547
S11304E067950794769567950794762F602D862BEC
S11304F040911A01042E000C550B55231CF4519500
S113050041955109440F551F440F551F4C70842BBE
S113051020911B01022E000C330B33231CF4319564
S11305202195310922953295307F3227207F322759
S11305302073822B80930D0161E05DDEE8ECF0E036
S1130540808186FFFDCF8091C8008823DCF4CEE152
S1130550D1E0188281E061DE80930C01982F9370C2
S11305609883982F9695969593709983982F929542
S11305709F7093709A8382958695869583708B83FA
S113058081E01CDEDF91CF910895CF93DF938091BA
S11305901801882319F0813039F004C081E0809378
S11305A0180102C08130C1F481E1ADDDCEE1D1E0BA
S11305B08881805DBFDD83E1A6DD8981805DBADD50
S11305C085E1A1DD8A81805DB5DD87E19CDD8B81DC
S11305D0805DB0DD8FE197DDDF91CF9108958FEFDE
S11305E084B915B88AB91BB81092170110921D016D
S11305F010921601109218016AE070E080E090E019
S11306007DDE1DDE88DD8BDE81E0B6DD10927C00B0
S113061064E071E081E097DD64E071E081E193DD05
S1130620C1E019E8DEE181DE30DFC19F812D1124B4
S113063082958F709C2F8D9F90191124911104C065
S1130640DBDEA3DFC1E001C0CF5F80911501882309
S10F0650E1F310921501E7CFF894FFCFFE
S10F065C0100000030203020302030006D
S9030000FC
